:1000000010C028C062C080C025C024C023C022C048
:1000100021C020C01FC01EC01DC01CC01BC01AC0F4
:100020005FC111241FBECFEDCDBF10E0A0E6B0E050
:10003000EEE4F7E002C005900D92A837B107D9F7BA
:1000400020E0A8E7B0E001C01D92AA39B207E1F7AD
:1000500031D37BC3D5CFD59AD6989BB390659BBB44
:10006000880F880F88658DB9809199008E7F809365
:100070009900809199008D7F80939900109298004B
:1000800008959EB19F7039F08091990082608093AD
:10009000990080E00895909199009E7F9093990037
:1000A000909199009D7F909399008FB980919900CC
:1000B0008695817091E08927089580919800089530
:1000C0008091990080FFFCCF08951F920F920FB688
:1000D0000F9211248F939F9399B380918200892767
:1000E00099B39093820080FF03C091E090938800C1
:1000F00087FF03C081E0809389009F918F910F90CB
:100100000FBE0F901F9018951F920F920FB60F926F
:1001100011248F939F9396B380918100892796B382
:100120009093810082FF03C081E080938A009F91B9
:100130008F910F900FBE0F901F901895F89489B370
:100140008093820086B38093810087B3836087BBEE
:1001500081E081DF8BB780638BBF82B3816882BB14
:1001600080B5846080BD78940895C19A0895C1983F
:100170000895C09A0895C098089591E090938700DB
:100180008F3609F445C060F48536C1F020F484361A
:1001900009F4A4C01FC08636F9F08E36B1F11AC03A
:1001A000893709F462C018F48837B1F113C0823876
:1001B00009F48EC0833809F48EC00CC090937D0082
:1001C00090937E0090937F00109280009093620045
:1001D000109266008FEF0895809184002091830033
:1001E0008295807F822B80937D0080918600209174
:1001F00085008295807F822B80937E0089B38093D7
:100200007F0086B380938000E1CF80916A000895DB
:1002100010926A0083ED08954091940050919500EA
:10022000609196007091970070937D0040919400CA
:1002300050919500609196007091970060937E00B8
:1002400040919400509195006091960070919700B4
:1002500050937F00409194005091950060919600DA
:100260007091970040938000B1CF8091790090E029
:10027000A0E0B0E0782F66275527442790917A00B8
:10028000892F90E0A0E0B0E0DC0199278827840F57
:10029000951FA61FB71F20917C00820F911DA11DE5
:1002A000B11D40917B0050E060E070E0762F652F3B
:1002B000542F4427840F951FA61FB71F80939400C7
:1002C00090939500A0939600B09397008DED0895BC
:1002D00050DF86EE08954FDF87EE089588EC08958D
:1002E0001F920F920FB60F9211242F933F934F93AB
:1002F0005F936F937F938F939F93AF93BF93CF93AE
:10030000EF93FF938FB18093980080E48EB9809132
:10031000990081608093990080919900982F917045
:1003200080FFACC08091980020916700222351F09B
:1003300020916200211106C0809167008927809377
:1003400067009CC08B3089F490916000992369F01C
:1003500010926000C1E0C09361008CE092DE809159
:100360006700C827C09367003AC090916100992345
:1003700069F080936300109261008DE082DE9091BD
:10038000670081E089278093670029C0209164007D
:1003900090916300291719F19091610091111FC08C
:1003A0009091600091111BC090916200911117C053
:1003B00090916300923060F0E0916400F0E0E858C2
:1003C000FF4F8083809164008F5F8093640007C03B
:1003D000909164009F5F909364008093650090917A
:1003E000640080916300981324C0809162008111A1
:1003F00020C08091610081111CC08091600081113A
:1004000018C080916300823018F08091780002C09B
:1004100080916500B2DE9091620091110AC031DED8
:1004200089E0EBE6F0E0A0E6B0E001900D928A955D
:10043000E1F780916200882309F1E0916600F0E025
:10044000E358FF4F80811DDE809166008F5F8093AF
:10045000660080916600843089F489E0EBE6F0E084
:10046000A0E6B0E001900D928A95E1F710927D0030
:1004700010927E0010927F0010928000FF91EF9109
:10048000CF91BF91AF919F918F917F916F915F912C
:100490004F913F912F910F900FBE0F901F90189585
:1004A000CF93DF93D82FC62F833059F128F48130B2
:1004B00049F0823071F04CC0843081F1853009F40C
:1004C0003DC046C054DE57DEC111C093860081E0B6
:1004D0003DC080918B008F5F80938B0010929400C1
:1004E00010929500109296001092970010928D0035
:1004F00010928C003ADE3DDEC111C093850082E08F
:100500000AC010928B0010928F0010928E00611121
:100510006093850083E0809383001AC010928B0063
:1005200010929000109291001092920010929300FD
:100530001EDEC111C093860084E008C010928B00BB
:1005400016DE19DEC111C093860085E08093840019
:10055000D0936900DF91CF91089580918B008A300C
:1005600018F060E085E002C061E082E099DF089564
:10057000C99902C062E00FC080918700882319F0FA
:1005800060E083E009C080918C0090918D008835F7
:10059000924020F067E081E083DF089580918C0035
:1005A00090918D00019690938D0080938C0008951A
:1005B000C9990FC08091940090919500A0919600E8
:1005C000B091970062E0892B8A2B8B2B39F184E064
:1005D00028C080916A00882329F1809187008823B0
:1005E00039F0C89B05C010928F0010928E000895BC
:1005F00080918E0090918F00019690938F00809350
:100600008E0020918E0030918F0080916A0090E0E2
:100610002817390738F068E0C89902C085E001C0A2
:1006200081E03EDF0895C89B02C063E022C0809154
:100630008900882311F065E01CC080918A0088231E
:1006400011F064E016C040919000509191006091CB
:100650009200709193008091940090919500A091E8
:100660009600B0919700481759076A077B0720F05A
:1006700066E082E015DF08958091900090919100EE
:10068000A0919200B09193000196A11DB11D80939D
:10069000900090939100A0939200B09393000895DE
:1006A00080918800882329F0C89B03C063E082E022
:1006B000F7DE089543DDC9E0C0907400D090750066
:1006C000E0907600F09077002FE38DE093E02150EA
:1006D00080409040E1F700C00000F89480916000F5
:1006E000811113C080916800823050F0EBE6F0E099
:1006F000A0E6B0E08C2F01900D928A95E1F705C03D
:10070000809168008F5F80936800809169008330DA
:1007100079F030F4813051F0823069F429DF0BC078
:10072000843041F0853039F4BBDF05C016DF03C0EB
:100730003FDF01C078DFC0928700D0928800E0924E
:0E0740008900F0928A007894BFCFF894FFCF22
:10074E0001000000000000000001B40100000000E4
:08075E00000000000000000093
:00000001FF
