:1000000020C08FC139C038C037C0A0C135C034C08E
:1000100033C032C031C056C565C62EC02DC02CC0FD
:100020002BC02AC029C0E3C3B7C0BAC0C5C042C1F3
:1000300049C144C13BC146C145C144C1C1C0B8C0AA
:1000400001C111241FBECFEFD2E0DEBFCDBF11E052
:10005000A0E0B1E0E8EBF1E102C005900D92A23022
:10006000B107D9F721E0A2E0B1E001C01D92A935A6
:10007000B207E1F7E2D29EC8C3CF14C386B1881F8E
:100080008827881F08952FB7F894E7E0F1E087816B
:1000900090850196908787832FBF08952FB7F89496
:1000A000E7E0F1E0808191810196918380832FBF09
:1000B00008959FB7F89480931101611102C09FBF0A
:1000C000089560931301FBCFFC01808180930201AE
:1000D000623071050CF440C08B3029F08C3041F156
:1000E0008A30D1F510C065307105B4F181818093FB
:1000F00003018281809304018381809305018481BF
:10010000809306010895818183FF02C084E083B952
:10011000818185FF02C088E086B9818186FF02C0A7
:1001200082E089B9818187FF17C081E089B908958C
:10013000818181FF02C084E086B9818182FF02C093
:1001400082E086B9818183FF02C080E483B9818126
:1001500084FF02C080E883B908954F925F926F9246
:100160007F928F929F92AF92BF92CF92DF92EF9247
:10017000FF920F931F93CF93DF931F92CDB7DEB7FC
:10018000E09102018E2F90E08D30910508F09AC029
:10019000FC01EC5EFF4F099481E08093150192C051
:1001A00061E087E191E0EBD264E080E191E089C019
:1001B00064E083E091E085C069E087E091E081C080
:1001C00069B059B043B073B059DF36B199B129B1B4
:1001D00040FA882480F8912C880C991C880C991C72
:1001E000279522272795822A63FA662460F88628B5
:1001F00052FAAA24A0F8B12CAA0CBB1CA82872FAA7
:10020000CC24C0F8D12CA3E0CC0CDD1CAA95E1F7DE
:10021000CA2833FBEE24E0F8F12CB5E0EE0CFF1C0D
:10022000BA95E1F7EC2891FB002700F910E096E081
:10023000000F111F9A95E1F70E298295807F082BF8
:10024000098330C089B1A6B1F6B1E3B193B1A2FB85
:10025000662760F970E0660F771FF1FB442740F9CD
:1002600050E0440F551F440F551F462B881F882709
:10027000881F482BE6FB222720F930E053E0220FAD
:10028000331F5A95E1F7242B892F990F990B882753
:10029000990F881F992774E0880F991F7A95E1F7C5
:1002A000822B898361E0CE0101960BC061E084E17D
:1002B00091E007C064E085E591E003C062E080E082
:1002C00091E05DD20F90DF91CF911F910F91FF9040
:1002D000EF90DF90CF90BF90AF909F908F907F90E6
:1002E0006F905F904F900895F894C7DEEED411D4CC
:1002F00086B18093540189B1809353018DEA90E0D7
:1003000020D284E690E018D283E08093690081E0F7
:100310008DBB84E08093680080EF80936D007894BB
:1003200008951F920F920FB60F9211248F93EF939F
:10033000FF93E4E1F1E0808182608083FF91EF919F
:100340008F910F900FBE0F901F9018951F920F92D4
:100350000FB60F9211248F939F9399B180915301FF
:1003600089279093530187FF05C0909114019061F4
:100370009093140186FF05C09091140190629093B0
:10038000140185FF05C090911401946090931401AD
:1003900084FF05C0809114018860809314018091CE
:1003A00014018160809314019F918F910F900FBE73
:1003B0000F901F9018951F93CF93DF93C82FD62FC0
:1003C000833009F44EC0A0F5813009F443C0823077
:1003D00009F074C0809116018F5F809316019FB75A
:1003E000F8948091160181508093090110920A01BE
:1003F00010920B0110920C0110920D019FBF1092F0
:1004000015018FB7F8941092030110920401109215
:100410000501109206018FBF439A289A2A9A93D415
:1004200088E094D142E360E084EF91E07ED32BC07A
:100430008430A1F1853009F041C028982A9843986A
:100440008DD492D183E0B0D31092140127DE6D2FAA
:1004500085E033C028982A9880E0A6D36D2F81E0EC
:100460002CC0109216011FB7F89461D460930A0152
:1004700070930B0180930C0190930D011FBF82E3D9
:1004800093D3109214018FB7F894C0931001D11137
:1004900002C08FBF13C0D0931201FBCF289843989E
:1004A00063D122E343E060E273E08CEF98E081D314
:1004B00010921401F3DD6D2F84E0FBDD5AD4C0935C
:1004C0001701DF91CF911F910895809116018A3015
:1004D00018F069E085E008C02AD4683E73408105C1
:1004E000910518F060E082E066CF089580911501D3
:1004F000882319F060E083E00DC04B990FC017D43A
:10050000683E73408105910548F0B8DD882319F0F5
:1005100063E085E050CF62E081E0FCCF08D4603C2E
:1005200077428940910548F0A9DD69E0882311F000
:1005300085E001C081E03FDFA6CD08954B991FC043
:100540002FB7F8948091030190910401A0910501C7
:10055000B09106012FBF892B8A2B8B2B41F48EDDA6
:10056000811102C062E001C063E085E007C086DD62
:10057000811102C062E001C063E084E01CCF809181
:100580001501882331F01092150178DD811110C01A
:10059000F0C3CDD360327F4B8240910548F06EDDD1
:1005A0006AE0882311F085E001C081E004DF6BCDB3
:1005B00008950F931F9380911401882301F1809176
:1005C000140181FF02C063E029C08091140182FF01
:1005D00002C064E023C08091140183FF02C065E083
:1005E0001DC08091140184FF02C066E017C0809195
:1005F000140185FF02C067E011C06EEF0FC097D3F2
:100600000091030110910401209105013091060130
:10061000601771078207930728F068E082E01F9156
:100620000F91C9CE1F910F9108958091140181FF00
:1006300003C063E082E0BFCE089556DE81E0809380
:1006400017018093120168EE73E080E090E09ED382
:100650004A9B02C0439A01C04398C9B10FDDC2FB57
:10066000CC27C0F98C1307C0882319F0439A479808
:1006700002C04398479A80911701833079F030F493
:10068000813051F0823049F731DFE7CF843041F0DB
:10069000853019F7CADFE1CF18DFDFCF4FDFDDCFBD
:1006A00088DFDBCF8DEA809364008DB1807F8DB9C8
:1006B0008EB18F608EB984B114B885B18FEF85B9D2
:1006C00097B117B898B188B99AB11AB89BB18BB9DC
:1006D000209A2898219A29982998229A2A98269A25
:1006E0002E98279A2F984098399A41983A9A42988A
:1006F0003B9A43983F9A4798509A5898519A599ADA
:1007000052985A9853985B9854985C9855985D986D
:1007100056985E98579857985F9A40E060E881E64F
:1007200090E003D013BE15BE08952FB7F894FC01D6
:10073000608340832FBF089590933D0180933C01D7
:10074000089590933F0180933E010895E4E6F0E020
:1007500090819F779083880F8093BA00ECEBF0E054
:100760008081856480830895ECEBF0E080818A7B52
:100770008083E4E6F0E08081806880830895409182
:100780002A01262F30E0240F311D21313105DCF400
:10079000209140012230C9F4FC0180E090E08617EE
:1007A00058F430912A012191DC01A45DBE4FA30FC2
:1007B000B11D2C930196F3CF80912A01680F6093AD
:1007C0002A0180E0089581E0089582E0089585ED92
:1007D0008093BC008091BC0084FDFCCF109240014E
:1007E000089585EC8093BC001092400108951F92FB
:1007F0000F920FB60F9211242F933F934F935F9355
:100800006F937F938F939F93AF93BF93EF93FF93D8
:100810008091B900887F8039A1F1B0F4803759F117
:1008200050F4803641F1883631F1811186C0109242
:100830001801CDDF82C0803821F1883809F474C0F6
:10084000883709F07AC017C0803B09F445C048F4E6
:10085000803A51F1883A09F43FC0883909F06DC0F7
:1008600063C0803C09F464C0883C09F461C0883BE3
:1008700009F447C062C081E08093400110921901E1
:1008800011C080911901803108F04EC0E09119012A
:1008900081E08E0F809319018091BB00F0E0E65E4D
:1008A000FE4F808385EC41C09CDF8091190180312F
:1008B00030F4E0911901F0E0E65EFE4F10826091A5
:1008C000190170E0E0913C01F0913D018AE191E075
:1008D00009951092190131C082E080934001109275
:1008E0002B0110922A01E0913E01F0913F01099500
:1008F00080912A01811105C081E080932A01109224
:100900002C01E0912B0181E08E0F80932B01F0E010
:10091000E45DFE4F80818093BB0090912B0180911C
:100920002A01981708F4BECF85E88093BC0005C063
:1009300085EC8093BC0010924001FF91EF91BF9134
:10094000AF919F918F917F916F915F914F913F9167
:100950002F910F900FBE0F901F901895CF92DF929E
:10096000EF92FF9240914C0180914D0190914E0188
:100970002091460130914701442319F0413089F01C
:1009800025C0019690934E0180934D0140914A01FC
:1009900050914B018417950771F481E080934C01CD
:1009A00015C0019790934E0180934D01009719F463
:1009B00010924C010BC02817390740F440914101B7
:1009C00050E0842395234817590759F560914D014C
:1009D00070914E016217730720F1621B730B80E068
:1009E00090E0EFD2209142013091430140914401C7
:1009F0005091450174D36B017C016091510170915C
:100A0000520180E090E0DDD29B01AC01C701B6014C
:100A1000E0D1ABD2609523E0722770938900609398
:100A20008800FF90EF90DF90CF900895882391F099
:100A3000682F70E080E090E0C4D220E030EC4FE717
:100A400054E44DD320E030E04FE753E426D28DD27A
:100A5000CB01089580E090E0089580914C018823B7
:100A600019F08130C9F0089580914D0190914E01A7
:100A7000019690934E0180934D0120914A0130914F
:100A80004B0182179307E9F481E080934C01809138
:100A90004F019091500111C080914D0190914E01F4
:100AA000019790934E0180934D01892B51F4109240
:100AB0004C01809151019091520190938900809353
:100AC000880008951F920F920FB60F9211242F9352
:100AD0003F934F935F936F937F938F939F93AF93C6
:100AE000BF93EF93FF93E0914801F091490109957D
:100AF000FF91EF91BF91AF919F918F917F916F91F6
:100B00005F914F913F912F910F900FBE0F901F90CB
:100B10001895E4E6F0E08081877F808383EC809302
:100B200080008AE08093810008951F93CF93DF9324
:100B3000EC01862F142F90916F009E7F90936F0091
:100B400075DF809523E092279093520180935101A5
:100B5000812F6CDF809523E0922790935001809342
:100B60004F0190938900809388002097C9F0D0931B
:100B70004B01C0934A0110924E0110924D01109208
:100B80004C018DE295E090934901809348011092C9
:100B900085001092840080916F00816080936F00C7
:100BA000DF91CF911F910895482F60E080E090E0A1
:100BB000BCCFCF92DF92EF92FF920F931F93CF9310
:100BC000DF93EC018B01842FD22E90916F009E7FDA
:100BD00090936F002BDF7C01909352018093510121
:100BE0008D2D24DF9093500180934F01E09483E09A
:100BF000F826F0928900E0928800D695C795D093A8
:100C00004B01C0934A011695079510934701009335
:100C1000460160914F017091500180915101909176
:100C20005201681B790B80E090E0CBD16B017C0115
:100C3000BE01601B710B80E090E0C3D19B01AC0151
:100C4000C701B6012AD19B01AC01609342017093A8
:100C50004301809344019093450160E070E080E897
:100C60009FE31BD120E030E040E05FE3B2D07DD1D4
:100C7000623010F481E009C0643010F483E005C0F4
:100C8000683010F487E001C08FE08093410110923A
:100C90004E0110924D0110924C018EEA94E0909317
:100CA0004901809348011092850010928400809140
:100CB0006F00816080936F00DF91CF911F910F9142
:100CC000FF90EF90DF90CF900895E4E6F0E0808110
:100CD0008F7D80838CE085BD89EF87BD82E0809326
:100CE0006E0008951F920F920FB60F9211248F93EA
:100CF0009F93AF93BF938091550190915601A0911E
:100D00005701B09158010896A11DB11D809355015E
:100D100090935601A0935701B0935801BF91AF91A2
:100D20009F918F910F900FBE0F901F9018952FB726
:100D3000F8946091550170915601809157019091FE
:100D400058012FBF0895E4E6F0E080818F7D808315
:100D5000EEE6F0E08081826080830895EEE6F0E0C8
:100D600080818D7F8083E4E6F0E0808180628083F3
:100D700008958FB7F8941092550110925601109271
:100D800057011092580116BC8FBF0895CF92DF9281
:100D9000EF92FF922FB7F894C0905501D090560172
:100DA000E0905701F0905801DC01CB018C0D9D1DA6
:100DB000AE1DBF1D8093550190935601A09357011E
:100DC000B09358012FBFFF90EF90DF90CF90089520
:100DD0005058BB27AA270ED048C139D130F03ED198
:100DE00020F031F49F3F11F41EF42EC10EF4E09573
:100DF000E7FB24C1E92F4AD180F3BA1762077307D2
:100E00008407950718F071F49EF562C10EF4E09521
:100E10000B2EBA2FA02D0B01B90190010C01CA01B4
:100E2000A0011124FF27591B99F0593F50F4503E5F
:100E300068F11A16F040A22F232F342F4427585F51
:100E4000F3CF469537952795A795F0405395C9F769
:100E50007EF41F16BA0B620B730B840BBAF0915021
:100E6000A1F0FF0FBB1F661F771F881FC2F70EC0C0
:100E7000BA0F621F731F841F48F487957795679593
:100E8000B795F7959E3F08F0B3CF9395880F08F07C
:100E90009927EE0F9795879508950CD0E6C0DED080
:100EA00040F0D5D030F021F45F3F19F0C7C05111A8
:100EB00010C1CAC0EBD098F39923C9F35523B1F3FD
:100EC000951B550BBB27AA2762177307840738F0B9
:100ED0009F5F5F4F220F331F441FAA1FA9F333D018
:100EE0000E2E3AF0E0E830D091505040E695001CCC
:100EF000CAF729D0FE2F27D0660F771F881FBB1F88
:100F0000261737074807AB07B0E809F0BB0B802D61
:100F1000BF01FF2793585F4F2AF09E3F510568F0AD
:100F20008DC0D7C05F3FECF3983EDCF38695779594
:100F30006795B795F7959F5FC9F7880F911D9695AF
:100F4000879597F90895E1E0660F771F881FBB1F0B
:100F5000621773078407BA0720F0621B730B840BB8
:100F6000BA0BEE1F88F7E095089598D088F09F5748
:100F700090F0B92F9927B751A0F0D1F0660F771FE5
:100F8000881F991F1AF0BA95C9F712C0B13081F0C5
:100F90009FD0B1E008959CC0672F782F8827B85F55
:100FA00039F0B93FCCF3869577956795B395D9F726
:100FB0003EF490958095709561957F4F8F4F9F4F30
:100FC0000895E89409C097FB3EF49095809570953C
:100FD00061957F4F8F4F9F4F9923A9F0F92F96E985
:100FE000BB279395F695879577956795B795F111FA
:100FF000F8CFFAF4BB0F11F460FF1BC06F5F7F4F97
:101000008F4F9F4F16C0882311F096E911C07723A8
:1010100021F09EE8872F762F05C0662371F096E8B1
:10102000862F70E060E02AF09A95660F771F881F80
:10103000DAF7880F9695879597F9089597F99F673E
:1010400080E870E060E008959FEF80EC0895002450
:101050000A941616170618060906089500240A941D
:1010600012161306140605060895092E0394000CA3
:1010700011F4882352F0BB0F40F4BF2B11F460FF32
:1010800004C06F5F7F4F8F4F9F4F089557FD90585B
:10109000440F551F59F05F3F71F04795880F97FB3C
:1010A000991F61F09F3F79F08795089512161306F6
:1010B0001406551FF2CF4695F1DF08C01616170625
:1010C0001806991FF1CF869571056105089408955A
:1010D000E894BB2766277727CB0197F908950AD0B4
:1010E000C4CFB5DF28F0BADF18F0952309F0A6CFFA
:1010F000ABCFEFCFCBDFA8F39923D9F35523C9F3B7
:10110000950F50E0551FAA27EE27FF27BB27002485
:101110000894679520F4E20FF31FB41F0A1E220FF4
:10112000331F441FAA1F6695A9F7779530F4F30F74
:10113000B41F0A1E121E08F46395330F441FAA1F22
:10114000221F769599F7879520F4B40F0A1E121E78
:10115000631F440FAA1F221F331F8695A9F7862FEE
:10116000712D602D11249F5750408AF0E1F08823A3
:101170004AF0EE0FFF1FBB1F661F771F881F91509D
:101180005040A9F79E3F510570F058CFA2CF5F3F66
:10119000ECF3983EDCF3869577956795B795F795D0
:1011A000E7959F5FC1F7FE2B880F911D9695879558
:0811B00097F90895F894FFCFB0
:0211B800020231
:00000001FF
