:1000000020C08FC139C038C037C0A0C135C034C08E
:1000100033C032C031C055C564C62EC02DC02CC0FF
:100020002BC02AC029C0E2C3B7C0BAC0C5C042C1F4
:1000300049C144C13BC146C145C144C1C1C0B8C0AA
:1000400001C111241FBECFEFD2E0DEBFCDBF11E052
:10005000A0E0B1E0E6EBF1E102C005900D92A8301E
:10006000B107D9F721E0A8E0B1E001C01D92AF359A
:10007000B207E1F7E2D29DC8C3CF14C386B1881F8F
:100080008827881F08952FB7F894EDE0F1E0878165
:1000900090850196908787832FBF08952FB7F89496
:1000A000EDE0F1E0808191810196918380832FBF03
:1000B00008959FB7F89480931701611102C09FBF04
:1000C000089560931901FBCFFC01808180930801A2
:1000D000623071050CF440C08B3029F08C3041F156
:1000E0008A30D1F510C065307105B4F181818093FB
:1000F0000901828180930A01838180930B018481AD
:1001000080930C010895818183FF02C084E083B94C
:10011000818185FF02C088E086B9818186FF02C0A7
:1001200082E089B9818187FF17C081E089B908958C
:10013000818181FF02C084E086B9818182FF02C093
:1001400082E086B9818183FF02C080E483B9818126
:1001500084FF02C080E883B908954F925F926F9246
:100160007F928F929F92AF92BF92CF92DF92EF9247
:10017000FF920F931F93CF93DF931F92CDB7DEB7FC
:10018000E09108018E2F90E08D30910508F09AC023
:10019000FC01EC5EFF4F099481E080931B0192C04B
:1001A00061E08DE191E0EAD264E086E191E089C00E
:1001B00064E089E091E085C069E08DE091E081C074
:1001C00069B059B043B073B059DF36B199B129B1B4
:1001D00040FA882480F8912C880C991C880C991C72
:1001E000279522272795822A63FA662460F88628B5
:1001F00052FAAA24A0F8B12CAA0CBB1CA82872FAA7
:10020000CC24C0F8D12CA3E0CC0CDD1CAA95E1F7DE
:10021000CA2833FBEE24E0F8F12CB5E0EE0CFF1C0D
:10022000BA95E1F7EC2891FB002700F910E096E081
:10023000000F111F9A95E1F70E298295807F082BF8
:10024000098330C089B1A6B1F6B1E3B193B1A2FB85
:10025000662760F970E0660F771FF1FB442740F9CD
:1002600050E0440F551F440F551F462B881F882709
:10027000881F482BE6FB222720F930E053E0220FAD
:10028000331F5A95E1F7242B892F990F990B882753
:10029000990F881F992774E0880F991F7A95E1F7C5
:1002A000822B898361E0CE0101960BC061E08AE177
:1002B00091E007C064E08BE591E003C062E080E07C
:1002C00091E05CD20F90DF91CF911F910F91FF9041
:1002D000EF90DF90CF90BF90AF909F908F907F90E6
:1002E0006F905F904F900895F894C7DEEDD410D4CE
:1002F00086B180935A0189B1809359018DEA90E0CB
:100300001FD284E690E017D283E08093690081E0F9
:100310008DBB84E08093680080EF80936D007894BB
:1003200008951F920F920FB60F9211248F93EF939F
:10033000FF93EAE1F1E0808182608083FF91EF9199
:100340008F910F900FBE0F901F9018951F920F92D4
:100350000FB60F9211248F939F9399B180915901F9
:1003600089279093590187FF05C090911A019061E8
:1003700090931A0186FF05C090911A0190629093A4
:100380001A0185FF05C090911A01946090931A019B
:1003900084FF05C080911A01886080931A018091C2
:1003A0001A01816080931A019F918F910F900FBE67
:1003B0000F901F9018951F93CF93DF93C82FD62FC0
:1003C000833009F44EC0A0F5813009F443C0823077
:1003D00009F074C080911C018F5F80931C019FB74E
:1003E000F89480911C01815080930F0110921001AC
:1003F0001092110110921201109213019FBF1092DE
:100400001B018FB7F8941092090110920A01109203
:100410000B0110920C018FBF439A289A2A9A92D40A
:1004200088E093D142E360E084EF91E07DD32BC07C
:100430008430A1F1853009F041C028982A9843986A
:100440008CD491D183E0AFD310921A0127DE6D2FA7
:1004500085E033C028982A9880E0A5D36D2F81E0ED
:100460002CC010921C011FB7F89460D46093100147
:100470007093110180931201909313011FBF82E3C7
:1004800092D310921A018FB7F894C0931601D1112C
:1004900002C08FBF13C0D0931801FBCF2898439898
:1004A00062D122E343E060E273E08CEF98E080D316
:1004B00010921A01F3DD6D2F84E0FBDD59D4C09357
:1004C0001D01DF91CF911F91089580911C018A3009
:1004D00018F069E085E008C029D4683E73408105C2
:1004E000910518F060E082E066CF089580911B01CD
:1004F000882319F060E083E00DC04B990FC016D43B
:10050000683E73408105910548F0B8DD882319F0F5
:1005100063E085E050CF62E081E0FCCF07D4603C2F
:1005200077428940910548F0A9DD69E0882311F000
:1005300085E001C081E03FDFA6CD08954B991FC043
:100540002FB7F8948091090190910A01A0910B01B5
:10055000B0910C012FBF892B8A2B8B2B41F48EDDA0
:10056000811102C062E001C063E085E007C086DD62
:10057000811102C062E001C063E084E01CCF809181
:100580001B01882331F010921B0178DD811110C00E
:10059000EFC3CCD360327F4B8240910548F06EDDD3
:1005A0006AE0882311F085E001C081E004DF6BCDB3
:1005B00008950F931F9380911A01882301F1809170
:1005C0001A0181FF02C063E029C080911A0182FFF5
:1005D00002C064E023C080911A0183FF02C065E07D
:1005E0001DC080911A0184FF02C066E017C080918F
:1005F0001A0185FF02C067E011C06EEF0FC096D3ED
:100600000091090110910A0120910B0130910C0118
:10061000601771078207930728F068E082E01F9156
:100620000F91C9CE1F910F91089580911A0181FFFA
:1006300003C063E082E0BFCE089556DE81E0809380
:100640001D018093180168EE73E080E090E09DD377
:100650004A9B02C0439A01C04398C9B10FDDC2FB57
:10066000CC27C0F98C1307C0882319F0439A479808
:1006700002C04398479A80911D01833079F030F48D
:10068000813051F0823049F731DFE7CF843041F0DB
:10069000853019F7CADFE1CF18DFDFCF4FDFDDCFBD
:1006A00088DFDBCF8DEA809364008DB1807F8DB9C8
:1006B0008EB18F608EB984B114B885B18FEF85B9D2
:1006C00097B117B898B188B99AB11AB89BB18BB9DC
:1006D000209A2898219A29982998229A2A98269A25
:1006E0002E98279A2F984098399A41983A9A42988A
:1006F0003B9A43983F9A4798509A5898519A599ADA
:1007000052985A9853985B9854985C9855985D986D
:1007100056985E9857985F9840E060E881E690E0D0
:1007200003D013BE15BE08952FB7F894FC01608363
:1007300040832FBF08959093430180934201089511
:1007400090934501809344010895E4E6F0E09081A0
:100750009F779083880F8093BA00ECEBF0E0808164
:10076000856480830895ECEBF0E080818A7B808350
:10077000E4E6F0E080818068808308954091300154
:10078000262F30E0240F311D21313105DCF420917A
:1007900046012230C9F4FC0180E090E0861758F44D
:1007A000309130012191DC01AE5CBE4FA30FB11D31
:1007B0002C930196F3CF80913001680F6093300144
:1007C00080E0089581E0089582E0089585ED8093AA
:1007D000BC008091BC0084FDFCCF109246010895BE
:1007E00085EC8093BC001092460108951F920F92F1
:1007F0000FB60F9211242F933F934F935F936F93F4
:100800007F938F939F93AF93BF93EF93FF938091C9
:10081000B900887F8039A1F1B0F4803759F150F4E4
:10082000803641F1883631F1811186C010921E0167
:10083000CDDF82C0803821F1883809F474C0883750
:1008400009F07AC017C0803B09F445C048F4803AEB
:1008500051F1883A09F43FC0883909F06DC063C08E
:10086000803C09F464C0883C09F461C0883B09F409
:1008700047C062C081E08093460110921F0111C001
:1008800080911F01803108F04EC0E0911F0181E08E
:100890008E0F80931F018091BB00F0E0E05EFE4F61
:1008A000808385EC41C09CDF80911F01803130F452
:1008B000E0911F01F0E0E05EFE4F108260911F01A9
:1008C00070E0E0914201F091430180E291E00995EE
:1008D00010921F0131C082E08093460110923101D5
:1008E00010923001E0914401F09145010995809109
:1008F0003001811105C081E08093300110923201F6
:10090000E091310181E08E0F80933101F0E0EE5CE7
:10091000FE4F80818093BB00909131018091300126
:10092000981708F4BECF85E88093BC0005C085EC1D
:100930008093BC0010924601FF91EF91BF91AF915F
:100940009F918F917F916F915F914F913F912F91E7
:100950000F900FBE0F901F901895CF92DF92EF92DD
:10096000FF92409152018091530190915401209146
:100970004C0130914D01442319F0413089F025C0DC
:1009800001969093540180935301409150015091EE
:1009900051018417950771F481E08093520115C0CD
:1009A00001979093540180935301009719F410928A
:1009B00052010BC02817390740F44091470150E01D
:1009C000842395234817590759F560915301709175
:1009D00054016217730720F1621B730B80E090E0F3
:1009E000EFD2209148013091490140914A01509144
:1009F0004B0174D36B017C016091570170915801D8
:100A000080E090E0DDD29B01AC01C701B601E0D1EE
:100A1000ABD2609523E072277093890060938800C1
:100A2000FF90EF90DF90CF900895882391F0682F8A
:100A300070E080E090E0C4D220E030EC4FE754E476
:100A40004DD320E030E04FE753E426D28DD2CB01E6
:100A5000089580E090E0089580915201882319F074
:100A60008130C9F00895809153019091540101960D
:100A70009093540180935301209150013091510182
:100A800082179307E9F481E0809352018091550128
:100A90009091560111C0809153019091540101979A
:100AA0009093540180935301892B51F41092520179
:100AB000809157019091580190938900809388000C
:100AC00008951F920F920FB60F9211242F933F9308
:100AD0004F935F936F937F938F939F93AF93BF9346
:100AE000EF93FF93E0914E01F0914F010995FF9133
:100AF000EF91BF91AF919F918F917F916F915F9196
:100B00004F913F912F910F900FBE0F901F9018950E
:100B1000E4E6F0E08081877F808383EC809380002F
:100B20008AE08093810008951F93CF93DF93EC01B7
:100B3000862F142F90916F009E7F90936F0075DF2A
:100B4000809523E092279093580180935701812F3D
:100B50006CDF809523E09227909356018093550196
:100B600090938900809388002097C9F0D093510119
:100B7000C0935001109254011092530110925201EF
:100B80008CE295E090934F0180934E011092850086
:100B90001092840080916F00816080936F00DF91DC
:100BA000CF911F910895482F60E080E090E0BCCF86
:100BB000CF92DF92EF92FF920F931F93CF93DF9329
:100BC000EC018B01842FD22E90916F009E7F909329
:100BD0006F002BDF7C0190935801809357018D2D7E
:100BE00024DF9093560180935501E09483E0F8262A
:100BF000F0928900E0928800D695C795D093510174
:100C0000C09350011695079510934D0100934C0128
:100C10006091550170915601809157019091580152
:100C2000681B790B80E090E0CBD16B017C01BE01A9
:100C3000601B710B80E090E0C3D19B01AC01C70148
:100C4000B6012AD19B01AC01609348017093490120
:100C500080934A0190934B0160E070E080E89FE34D
:100C60001BD120E030E040E05FE3B2D07DD16230C4
:100C700010F481E009C0643010F483E005C06830EE
:100C800010F487E001C08FE0809347011092540177
:100C900010925301109252018DEA94E090934F010B
:100CA00080934E01109285001092840080916F0015
:100CB000816080936F00DF91CF911F910F91FF9022
:100CC000EF90DF90CF900895E4E6F0E080818F7D93
:100CD00080838CE085BD89EF87BD82E080936E00C4
:100CE00008951F920F920FB60F9211248F939F9326
:100CF000AF93BF9380915B0190915C01A0915D01E6
:100D0000B0915E010896A11DB11D80935B01909387
:100D10005C01A0935D01B0935E01BF91AF919F9183
:100D20008F910F900FBE0F901F9018952FB7F894CA
:100D300060915B0170915C0180915D0190915E0119
:100D40002FBF0895E4E6F0E080818F7D8083EEE69A
:100D5000F0E08081826080830895EEE6F0E080819B
:100D60008D7F8083E4E6F0E0808180628083089557
:100D70008FB7F89410925B0110925C0110925D01A4
:100D800010925E0116BC8FBF0895CF92DF92EF9252
:100D9000FF922FB7F894C0905B01D0905C01E09077
:100DA0005D01F0905E01DC01CB018C0D9D1DAE1D3F
:100DB000BF1D80935B0190935C01A0935D01B09394
:100DC0005E012FBFFF90EF90DF90CF9008955058B5
:100DD000BB27AA270ED048C139D130F03ED120F030
:100DE00031F49F3F11F41EF42EC10EF4E095E7FBA1
:100DF00024C1E92F4AD180F3BA1762077307840729
:100E0000950718F071F49EF562C10EF4E0950B2E73
:100E1000BA2FA02D0B01B90190010C01CA01A0014C
:100E20001124FF27591B99F0593F50F4503E68F1A7
:100E30001A16F040A22F232F342F4427585FF3CFE8
:100E4000469537952795A795F0405395C9F77EF4B9
:100E50001F16BA0B620B730B840BBAF09150A1F002
:100E6000FF0FBB1F661F771F881FC2F70EC0BA0F88
:100E7000621F731F841F48F4879577956795B79510
:100E8000F7959E3F08F0B3CF9395880F08F0992708
:100E9000EE0F9795879508950CD0E6C0DED040F010
:100EA000D5D030F021F45F3F19F0C7C0511110C107
:100EB000CAC0EBD098F39923C9F35523B1F3951B1E
:100EC000550BBB27AA2762177307840738F09F5F6B
:100ED0005F4F220F331F441FAA1FA9F333D00E2EDA
:100EE0003AF0E0E830D091505040E695001CCAF747
:100EF00029D0FE2F27D0660F771F881FBB1F26170C
:100F000037074807AB07B0E809F0BB0B802DBF01DE
:100F1000FF2793585F4F2AF09E3F510568F08DC020
:100F2000D7C05F3FECF3983EDCF3869577956795E5
:100F3000B795F7959F5FC9F7880F911D969587958F
:100F400097F90895E1E0660F771F881FBB1F6217AE
:100F500073078407BA0720F0621B730B840BBA0B6C
:100F6000EE1F88F7E095089598D088F09F5790F08D
:100F7000B92F9927B751A0F0D1F0660F771F881FBE
:100F8000991F1AF0BA95C9F712C0B13081F09FD0FD
:100F9000B1E008959CC0672F782F8827B85F39F09B
:100FA000B93FCCF3869577956795B395D9F73EF41D
:100FB00090958095709561957F4F8F4F9F4F0895C5
:100FC000E89409C097FB3EF49095809570956195E3
:100FD0007F4F8F4F9F4F9923A9F0F92F96E9BB2799
:100FE0009395F695879577956795B795F111F8CF15
:100FF000FAF4BB0F11F460FF1BC06F5F7F4F8F4F80
:101000009F4F16C0882311F096E911C0772321F075
:101010009EE8872F762F05C0662371F096E8862F0D
:1010200070E060E02AF09A95660F771F881FDAF764
:10103000880F9695879597F9089597F99F6780E8A7
:1010400070E060E008959FEF80EC089500240A941A
:101050001616170618060906089500240A94121693
:101060001306140605060895092E0394000C11F4C6
:10107000882352F0BB0F40F4BF2B11F460FF04C073
:101080006F5F7F4F8F4F9F4F089557FD9058440FCC
:10109000551F59F05F3F71F04795880F97FB991FD7
:1010A00061F09F3F79F08795089512161306140694
:1010B000551FF2CF4695F1DF08C016161706180621
:1010C000991FF1CF86957105610508940895E894FC
:1010D000BB2766277727CB0197F908950AD0C4CF9D
:1010E000B5DF28F0BADF18F0952309F0A6CFABCF13
:1010F000EFCFCBDFA8F39923D9F35523C9F3950F8D
:1011000050E0551FAA27EE27FF27BB27002408948D
:10111000679520F4E20FF31FB41F0A1E220F331F3E
:10112000441FAA1F6695A9F7779530F4F30FB41FF3
:101130000A1E121E08F46395330F441FAA1F221FB4
:10114000769599F7879520F4B40F0A1E121E631F37
:10115000440FAA1F221F331F8695A9F7862F712DD2
:10116000602D11249F5750408AF0E1F088234AF007
:10117000EE0FFF1FBB1F661F771F881F9150504047
:10118000A9F79E3F510570F058CFA2CF5F3FECF317
:10119000983EDCF3869577956795B795F795E79533
:1011A0009F5FC1F7FE2B880F911D9695879597F944
:0611B0000895F894FFCF42
:0811B60002000000010000002E
:00000001FF
