:1000000030C04AC049C048C047C0DEC245C044C035
:1000100043C042C041C040C025C83EC03DC03CC0F6
:100020003BC03AC039C0ACC572C0A3C198C0A5C01E
:10003000CBC07DC0E5C004C12DC158C177C18BC103
:10004000D6C1DAC1E5C18EC265C270C267C2E4C161
:1000500006C22CC2D9C16EC271C274C277C27AC242
:100060007DC211241FBECFEFD2E0DEBFCDBF12E0B4
:10007000A0E0B1E0E4ECFEE102C005900D92AA30F0
:10008000B107D9F722E0AAE0B2E001C01D92AA3B75
:10009000B207E1F719D414CFB3CF9EC486B1881F3D
:1000A0008827881F08952FB7F894E4E1F2E087814C
:1000B00090850196908787832FBF08952FB7F89476
:1000C000E4E1F2E0808191810196918380832FBFEA
:1000D00008959FB7F89480931E02611102C09FBFDC
:1000E000089560932002FBCFDC01EC91E0930F02B6
:1000F000623071050CF43DC14E2F50E0FA01359786
:10010000EC30F10508F035C1EC5EFF4F0994119613
:100110008C91882309F42DC18FEF9FEF90930401F8
:100120008093030190930601809305010895653043
:1001300071050CF41EC111968C91119780931002D9
:1001400012968C9112978093110213968C911397AB
:100150008093120214968C91809313020895119645
:100160008C91119782FF02C084E083B911968C9123
:1001700084FFFFC081E089B9089511968C91119791
:1001800080FF02C084E08CB911968C91119781FF99
:1001900002C088E08CB911968C91119782FF04C03F
:1001A0004A9B439A84E089B911968C91119783FFF9
:1001B00002C082E08CB911968C9184FFDAC0339929
:1001C0005A9888E086B9089511968C91119781FF0D
:1001D00002C084E086B911968C91119782FF02C00B
:1001E00082E086B911968C91119783FF02C080E45A
:1001F00083B911968C9184FFBCC080E883B90895BF
:10020000653071050CF4B5C011968C9111978093EF
:10021000B40212968C9112978093B50213968C912A
:1002200013978093B60214968C918093B7028091B5
:10023000B1028B7F8093B1028091B202846053C07F
:10024000673071050CF495C011968C9111978093CD
:10025000A10212968C9112978093A20213968C9110
:1002600013978093A30214968C9114978093A40201
:1002700015968C9115978093A50216968C91809374
:10028000A6028091B1028D7F8093B1028091B2026B
:10029000826029C0673071050CF46BC011968C9197
:1002A00011978093A90212968C9112978093AA02BB
:1002B00013968C9113978093AB0214968C9114979C
:1002C0008093AC0215968C9115978093AD0216968B
:1002D0008C918093AE028091B1028E7F8093B102A7
:1002E0008091B20281608093B202089565307105F9
:1002F0000CF43FC011968C91119780939402129642
:100300008C9112978093950213968C9113978093FA
:10031000960214968C918093970280919A028E7F18
:1003200080939A0280919B02816021C062307105A6
:1003300001F111968C91119780939D0212968C91E8
:1003400080939E0280919A028D7F80939A02809181
:100350009B0282600CC011968C91809391028091D7
:100360009A028B7F80939A0280919B028460809393
:100370009B020895823041F0843049F08130C1F40D
:1003800080930A02479A089510920A0204C080914D
:100390000A0281110DC080912802843021F08091E1
:1003A0002802853029F48091210282608093210205
:1003B00008954F925F926F927F92AF92BF92CF92C9
:1003C000DF92EF92FF920F931F93CF93DF931F92D1
:1003D000CDB7DEB7E0910F024E2E512C81E14816C9
:1003E000510408F0C3C0F201E05EFF4F099481E0C0
:1003F0008093220287E089C061E088E292E05DD3C9
:1004000064E08DE192E0B1C064E080E192E0ADC0D3
:1004100069E084E192E0A9C019B1B3B003B13EDE56
:1004200099B1B0FACC24C0F8D12CCC0CDD1C90FBD7
:10043000EE24E0F8F12C34E0EE0CFF1C3A95E1F7E5
:10044000EC2813FB222720F99E2D922B102F1470DD
:10045000192B880F880F880F182B198357C08CB160
:100460004CB199B13CB126B143FB002700F910E033
:10047000000F111F9470092B82FB882780F9082B2D
:1004800031FBAA27A0F9B0E0F3E0AA0FBB1FFA9551
:10049000E1F7A02B23FB662760F970E0B4E0660F5C
:1004A000771FBA95E1F76A2B698330C089B1E6B14D
:1004B00076B163B193B1E2FBAA24A0F8B12CAA0CE7
:1004C000BB1C71FB442740F950E0440F551F440FFB
:1004D000551F4A29881F8827881F482B66FB22271B
:1004E00020F930E053E0220F331F5A95E1F7242B17
:1004F000892F990F990B8827990F881F992774E0E6
:10050000880F991F7A95E1F7822B898361E0CE01EC
:1005100001962BC061E081E292E027C062E08AE9A7
:1005200092E0CBD262E081EB92E01FC066E081E016
:1005300091E01BC066E084EB92E017C068E081EABE
:1005400092E013C068E089EA92E00FC066E084E9B7
:1005500092E00BC064E08DE992E007C063E081E9BE
:1005600092E003C062E087E091E0A7D2CED20F9084
:10057000DF91CF911F910F91FF90EF90DF90CF907F
:10058000BF90AF907F906F905F904F900895F894D8
:1005900084DD5BD582D4BBD58AEB91E0F5D789EDBC
:1005A00091E06DD284E790E065D284E080936800AA
:1005B00080EF80936D0089B18093900280919002CA
:1005C00080938F02789408951F920F920FB60F9226
:1005D00011248F9389B1809390028F910F900FBE59
:1005E0000F901F901895CF93DF93C82FD62F83308D
:1005F00009F43EC088F58130A1F1823009F07BC05A
:10060000809123028F5F809323029FB7F89480919B
:100610002302815080931602109217021092180242
:100620001092190210921A029FBF109222028FB7E5
:10063000F89410921002109211021092120210926D
:1006400013028FBF289A2A9A88E01ED242E360E004
:1006500080EF91E036D425C0843071F18530D9F136
:100660004AC028982A9880E067D46D2F81E042C064
:10067000109223028FB7F8944091240250912502E2
:10068000609126027091270240931702509318023E
:100690006093190270931A028FBF82E34DD41092B7
:1006A00021028FB7F894C0931D02D11102C08FBFF1
:1006B00022C0D0931F02FBCF2898F4D122E343E05D
:1006C00060E273E080E199E03CD410922102F6DC14
:1006D0006D2F84E00FC028982A984798E3D183E0D3
:1006E0002BD41092210280912802843009F0E6DC9C
:1006F0006D2F85E0EEDCC093280210922402109248
:1007000025021092260210922702DF91CF910895C0
:10071000809123028A3018F069E085E00FC0809153
:10072000240290912502A0912602B09127028034E4
:100730009640A105B10518F060E082E054CF08951D
:1007400080912202882319F060E083E015C0809137
:10075000240290912502A0912602B09127024B9984
:100760000FC0803426E09207A105B10548F096DC61
:10077000882319F063E085E036CF62E081E0FCCFAA
:10078000803C9742A940B10548F088DC69E08823A5
:1007900011F085E001C081E026DF85CC08954B99FA
:1007A0001FC02FB7F8948091100290911102A09170
:1007B0001202B09113022FBF892B8A2B8B2B41F48D
:1007C0006DDC811102C062E001C063E085E007C01A
:1007D00065DC811102C062E001C063E084E003CF08
:1007E00080912202882371F01092220257DC81113D
:1007F0001FC010922402109225021092260210921D
:10080000270208958091240290912502A09126024A
:10081000B091270280329F4BA240B10548F03EDCE8
:100820006AE0882311F085E001C081E0DCDE3BCC8A
:10083000089534DC882319F063E085E03BC08091A3
:100840002102882301F18091210281FF02C063E02F
:1008500030C08091210282FF02C064E02AC08091F2
:10086000210283FF02C065E024C08091210284FF41
:1008700002C066E01EC08091210285FF02C067E0D1
:1008800018C06EEF16C04091100250911102609195
:100890001202709113028091240290912502A0917E
:1008A0002602B091270284179507A607B70718F00C
:1008B00068E082E098CE08958091210281FF03C014
:1008C00063E082E090CE089562DE81E080932802AA
:1008D00080931F024FEF60E088E290E0F2D2D3D322
:1008E000811101C0E6D275D4811101C0B7D69091B3
:1008F000900280918F02981721F1892790938F029F
:1009000087FF05C09091210290619093210286FF9C
:1009100005C09091210290629093210285FF05C04D
:100920009091210294609093210284FF05C08091F0
:10093000210288608093210280912102816080934E
:100940002102DCD300910B0210910C0220910D02C8
:1009500030910E02601771078207930721F16B0136
:100960007C01C01AD10AE20AF30A97018601C090FD
:100970002402D0902502E0902602F09027020C0D70
:100980001D1D2E1D3F1D0093240210932502209350
:1009900026023093270260930B0270930C0280931F
:1009A0000D0290930E0280912802833089F038F472
:1009B000813061F0823009F092CFC2DE90CF843076
:1009C00049F0853009F08BCF77DF89CFA1DE87CF63
:1009D000E6DE85CF2EDF83CF8DEA809364008DB174
:1009E000807F8DB98EB18F608EB984B114B885B116
:1009F0008FEF85B997B117B898B188B99AB11AB87D
:100A00009BB18BB9699A71986A9A72986B9A73982C
:100A1000209A2898219A29982998229A2A98269AE1
:100A20002E98279A2F984098399A41983A9A429846
:100A30003B9A43983F9A4798509A5898529A5A9896
:100A400053985B9854985C9855985D9856985E9822
:100A5000579857985F9A40E060E881E690E003D0AD
:100A600013BE15BE08952FB7F894FC016083408330
:100A70002FBF089590934E0280934D020895909356
:100A8000500280934F020895E4E6F0E090819F7752
:100A90009083880F8093BA00ECEBF0E0808185644E
:100AA00080830895ECEBF0E080818A7B8083E4E62C
:100AB000F0E0808180688083089540913B02262F7A
:100AC00030E0240F311D21313105DCF42091510239
:100AD0002230C9F4FC0180E090E0861758F4309190
:100AE0003B022191DC01A35CBD4FA30FB11D2C93F0
:100AF0000196F3CF80913B02680F60933B0280E048
:100B0000089581E0089582E0089580913B0290E08D
:100B1000409714F580915102823001F5E0E090E0B9
:100B200080913B02981760F4A92FB0E0A35CBD4F01
:100B30008C91E827F0E0E75FFE4FE0819F5FF0CF08
:100B4000A0913B0281E08A0F80933B02B0E0A35C5E
:100B5000BD4FEC9380E0089581E0089582E0089510
:100B600085ED8093BC008091BC0084FDFCCF109289
:100B70005102089585EC8093BC00109251020895B3
:100B80001F920F920FB60F9211242F933F934F9302
:100B90005F936F937F938F939F93AF93BF93EF93E5
:100BA000FF938091B900887F8039A1F1B0F480373C
:100BB00059F150F4803641F1883631F1811186C007
:100BC00010922902CDDF82C0803821F1883809F4E3
:100BD00074C0883709F07AC017C0803B09F445C05B
:100BE00048F4803A51F1883A09F43FC0883909F055
:100BF0006DC063C0803C09F464C0883C09F461C0E6
:100C0000883B09F447C062C081E080935102109292
:100C10002A0211C080912A02803108F04EC0E09172
:100C20002A0281E08E0F80932A028091BB00F0E0BF
:100C3000E55DFD4F808385EC41C09CDF80912A02F9
:100C4000803130F4E0912A02F0E0E55DFD4F108242
:100C500060912A0270E0E0914D02F0914E028BE229
:100C600092E0099510922A0231C082E080935102ED
:100C700010923C0210923B02E0914F02F091500220
:100C8000099580913B02811105C081E080933B0270
:100C900010923D02E0913C0281E08E0F80933C0275
:100CA000F0E0E35CFD4F80818093BB0090913C02BB
:100CB00080913B02981708F4BECF85E88093BC0072
:100CC00005C085EC8093BC0010925102FF91EF911A
:100CD000BF91AF919F918F917F916F915F914F9154
:100CE0003F912F910F900FBE0F901F901895382FA6
:100CF000FC0180E090E02E2F231B2617C8F42191E1
:100D00008227282F22952827022E269526952025F2
:100D1000022E269520252770082E892F26950794C8
:100D20002795902D82270694279590258227E3CF3B
:100D30000895CF92DF92EF92FF9240915D028091F1
:100D40005E0290915F022091570230915802442335
:100D500019F0413089F025C0019690935F0280938D
:100D60005E0240915B0250915C028417950771F41A
:100D700081E080935D0215C0019790935F0280939C
:100D80005E02009719F410925D020BC02817390714
:100D900040F44091520250E08423952348175907AC
:100DA00059F560915E0270915F026217730720F13E
:100DB000621B730B80E090E0FDD6209153023091CE
:100DC0005402409155025091560282D76B017C012A
:100DD000609162027091630280E090E0EBD69B012B
:100DE000AC01C701B601EED5B9D6609523E07227F4
:100DF0007093890060938800FF90EF90DF90CF9010
:100E00000895882391F0682F70E080E090E0D2D6BA
:100E100020E030EC4FE754E45BD720E030E04FE7D0
:100E200053E434D69BD6CB01089580E090E008953A
:100E300080915D02882319F08130C9F00895809176
:100E40005E0290915F02019690935F0280935E0232
:100E500020915B0230915C0282179307E9F481E0F4
:100E600080935D02809160029091610211C0809137
:100E70005E0290915F02019790935F0280935E0201
:100E8000892B51F410925D0280916202909163026D
:100E900090938900809388000895E4E6F0E08081D3
:100EA000877F808383EC809380008AE08093810039
:100EB0000895E0915902F0915A02309709F009948F
:100EC00008951F93CF93DF93EC01862F142F99DFA2
:100ED000809523E092279093630280936202812F92
:100EE00090DF809523E092279093610280936002C7
:100EF00090938900809388002097B1F083E0D69585
:100F0000C7958A95E1F7D0935C02C0935B0210927B
:100F10005F0210925E0210925D0288E197E090936A
:100F20005A028093590204C010925A021092590238
:100F3000DF91CF911F910895482F60E080E090E00D
:100F4000C0CFCF92DF92EF92FF920F931F93CF9378
:100F5000DF93EC018B01842FD22E53DF7C01909321
:100F60006302809362028D2D4CDF90936102809327
:100F70006002E09483E0F826F0928900E092880015
:100F800084E0D695C7958A95E1F7D0935C02C0932B
:100F90005B0294E0169507959A95E1F71093580235
:100FA0000093570260916002709161028091620229
:100FB00090916302681B790B80E090E0FBD56B0198
:100FC0007C01BE01601B710B80E090E0F3D59B01BA
:100FD000AC01C701B6015AD59B01AC016093530225
:100FE00070935402809355029093560260E070E033
:100FF00080E89FE34BD520E030E040E05FE3E2D4BF
:10100000ADD5623010F481E009C0643010F483E0A3
:1010100005C0683010F487E001C08FE08093520271
:1010200010925F0210925E0210925D0289E996E0D2
:1010300090935A0280935902DF91CF911F910F91A3
:10104000FF90EF90DF90CF900895E4E6F0E080818C
:101050008F7D80838CE085BD89EF87BD82E08093A2
:101060006E0008951F920F920FB60F9211248F9366
:10107000809169028F5F809369028F910F900FBEFC
:101080000F901F901895CF92DF92EF92FF924091B0
:10109000690280916402481759F1682F70E0242F8B
:1010A00030E0C0906502D0906602E0906702F09058
:1010B0006802261B370B481708F43395C90123E053
:1010C000880F991F2A95E1F7092E000CAA0BBB0B7C
:1010D0008C0D9D1DAE1DBF1D809365029093660211
:1010E000A0936702B09368024093640280E001C05D
:1010F00081E0FF90EF90DF90CF90089560916502BE
:10110000709166028091670290916802089546E0AE
:1011100050E060E070E084E992E0A5D666E084E902
:1011200092E0E5DD892B91F080919A0281608093B5
:101130009A021092940210929502109296021092C6
:10114000970280919C02816080939C0244E050E071
:1011500066E070E08DE992E086D664E08DE992E089
:10116000C6DD892B71F080919A02826080939A0289
:1011700010929E0210929D0280919C028260809348
:101180009C0243E050E06AE070E081E992E06BD6B7
:1011900063E081E992E0ABDD892B61F080919A02F6
:1011A000846080939A021092910280919C028460E4
:1011B00080939C02809164008E7F8093640080E421
:1011C00080937C0086E880937A0081E080937E00A3
:1011D00008958F929F92AF92BF92CF92DF92EF923B
:1011E000FF920F931F93CF93DF9380919C028823EC
:1011F000E9F180919C0280FF16C080E89EE4ABEC90
:10120000B5EB8093940290939502A0939602B093CD
:10121000970280919C028E7F80939C0280919B021A
:10122000816080939B0280919C0281FF0EC010928E
:101230009E0210929D0280919C028D7F80939C0261
:1012400080919B02826080939B0280919C0282FF2E
:101250000DC084E18093910280919C028B7F8093EA
:101260009C0280919B02846080939B0280919B02F0
:10127000882309F448C080919B0280FF14C064E079
:1012800084E992E034DD909399028093980246E0DD
:1012900050E060E070E084E992E0F3D580919B0239
:1012A0008E7F80939B0280919B0281FF14C062E03D
:1012B0008DE992E01CDD9093A00280939F0244E0B0
:1012C00050E066E070E08DE992E0DBD580919B0212
:1012D0008D7F80939B0280919B0282FF14C061E00E
:1012E00081E992E004DD909393028093920243E0BF
:1012F00050E06AE070E081E992E0C3D580919B0202
:101300008B7F80939B0280917A00806480937A0027
:10131000AFE6B2E0AD0160E030E020E080917A001D
:10132000D82FD07486FDFACF809178007091790023
:1013300090917A00906490937A0090E0972BFA0154
:1013400081939193AF01E32FF0E0EE0FFF1FE1597E
:10135000FD4F0190F081E02D8E179F0770F0E62F72
:10136000F0E0EE0FFF1FE159FD4F0190F081E02DFD
:10137000E817F90718F4622F01C0322F2F5F2530CC
:1013800069F6C0E0E12CF12C80E0381741F06817D5
:1013900031F04D915C911197E40EF51ECF5F8F5F98
:1013A0001296853091F76091940270919502809128
:1013B0009602909197022FEF33E040E050E031D554
:1013C00049015A016C2F70E0C70117D59B0140E01D
:1013D00050E0C501B401F8D420E432E44FE050E01D
:1013E00020D5122FC32F60919102662309F455C0B6
:1013F00020916E02222391F100919102809191023D
:1014000064E670E0681B7109072E000C880B990BCD
:1014100020916A0230916B0240916C0250916D02F2
:10142000D3D46B017C01802F90E0612F7C2FBBD443
:10143000A7019601280F391F411D511DCA01B9018D
:1014400024E630E040E050E0ECD420936A02309390
:101450006B0240936C0250936D020BC010936A02B2
:1014600030936B0240936C0250936D0281E0809345
:101470006E0240916A0250916B0260916C02709111
:101480006D02809100019FEF980F909300018111F0
:101490006CC09A01AB014427552780919D02909121
:1014A0009E02892B61F060919D0270919E0280E006
:1014B00090E08AD428EE33E040E050E0B2D480914E
:1014C000010190910201A0E0B0E0281739074A0716
:1014D0005B0709F44BC08FB7F89430930201209357
:1014E00001018FBF809103019091040197FF07C014
:1014F0008FB7F89430930401209303018FBF80913C
:1015000005019091060197FF07C08FB7F8943093BB
:101510000601209305018FBF809103019091040182
:10152000092E000CAA0BBB0B281739074A075B07CB
:1015300038F48FB7F894309304012093030113C05B
:101540008091050190910601092E000CAA0BBB0B9E
:1015500082179307A407B50748F48FB7F894309320
:101560000601209305018FBF01C0D1E08D2FDF91CF
:10157000CF911F910F91FF90EF90DF90CF90BF9090
:10158000AF909F908F90089590938E0280938D02DC
:1015900048E050E060E170E089EA92E064D468E0FD
:1015A00089EA92E0A4DB892BB1F08091B1028160DD
:1015B0008093B1021092AA021092A9021092AB027B
:1015C0001092AC021092AD021092AE028091B30262
:1015D00081608093B30248E050E068E170E081EA06
:1015E00092E041D468E081EA92E081DB892BB1F09E
:1015F0008091B10282608093B1021092A202109297
:10160000A1021092A3021092A4021092A5021092BD
:10161000A6028091B30282608093B30246E050E05C
:1016200060E270E084EB92E01ED466E084EB92E02E
:101630005EDB892B91F08091B10284608093B102CE
:101640001092B5021092B4021092B7021092B60234
:101650008091B30284608093B30208950F931F9327
:10166000CF93DF938091B202882309F448C0809120
:10167000B20280FF14C066E089EA92E038DB909302
:10168000B0028093AF0248E050E060E170E089EA88
:1016900092E0F7D38091B2028E7F8093B202809164
:1016A000B20281FF14C066E081EA92E020DB9093F1
:1016B000A8028093A70248E050E068E170E081EA68
:1016C00092E0DFD38091B2028D7F8093B20280914D
:1016D000B20282FF14C064E084EB92E008DB9093D6
:1016E000B9028093B80246E050E060E270E084EB1B
:1016F00092E0C7D38091B2028B7F8093B202FEDC6E
:10170000AB01BC018091890290918A02A0918B0269
:10171000B0918C02481759076A077B0709F44CC13E
:101720008A019B01081B190B2A0B3B0B8091850238
:1017300090918602A0918702B0918802800F911F3C
:10174000A21FB31F8093850290938602A093870205
:10175000B09388024093890250938A0260938B026F
:1017600070938C02C0910101D09102012091B302CB
:10177000222309F45AC02091B30220FF1CC024EC9C
:1017800034E03093AA022093A90240E859EA63E0CA
:1017900070E04093AB025093AC026093AD02709343
:1017A000AE022091B3022E7F2093B3022091B202A9
:1017B00021602093B2022091B30221FF1CC028E2D5
:1017C00035E03093A2022093A10248EB5BE060E099
:1017D00070E04093A3025093A4026093A50270931B
:1017E000A6022091B3022D7F2093B3022091B20272
:1017F00022602093B2022091B30222FF16C022E39E
:1018000030E03093B5022093B40228EE33E03093F9
:10181000B7022093B6022091B3022B7F2093B3022C
:101820002091B20224602093B2022091A90230914B
:10183000AA02232B71F12091A9023091AA022C1740
:101840003D0738F1409181025091820260918302FC
:1018500070918402840F951FA61FB71F8093810289
:1018600090938202A0938302B09384024091AB02D2
:101870005091AC026091AD027091AE028417950751
:10188000A607B70770F0E0918D02F0918E0281E01B
:101890000995109281021092820210928302109296
:1018A00084028091A1029091A202892BB1F18091D2
:1018B000A1029091A202C817D90778F140917D0248
:1018C00050917E0260917F0270918002809185022A
:1018D00090918602A0918702B0918802840F951F93
:1018E000A61FB71F80937D0290937E02A0937F0274
:1018F000B09380024091A3025091A4026091A5028E
:101900007091A60284179507A607B70770F0E091BB
:101910008D02F0918E0282E0099510927D02109264
:101920007E0210927F02109280028091B402909108
:10193000B502892B89F120917B0230917C0221151F
:10194000310529F1409185025091860280917902FA
:1019500090917A02840F951F90937A028093790276
:101960004091B6025091B70284179507E8F0809134
:10197000B4029091B502AE01421B530B48175907B0
:1019800034F0E0918D02F0918E0284E00995D093BD
:101990007C02C0937B0204C010927C0210927B02F6
:1019A00010927A02109279021092850210928602A9
:1019B0001092870210928802DF91CF911F910F91B0
:1019C00008955058BB27AA270ED048C139D130F00E
:1019D0003ED120F031F49F3F11F41EF42EC10EF4DD
:1019E000E095E7FB24C1E92F4AD180F3BA176207DB
:1019F00073078407950718F071F49EF562C10EF421
:101A0000E0950B2EBA2FA02D0B01B90190010C010E
:101A1000CA01A0011124FF27591B99F0593F50F426
:101A2000503E68F11A16F040A22F232F342F44277E
:101A3000585FF3CF469537952795A795F040539576
:101A4000C9F77EF41F16BA0B620B730B840BBAF046
:101A50009150A1F0FF0FBB1F661F771F881FC2F7B1
:101A60000EC0BA0F621F731F841F48F487957795C5
:101A70006795B795F7959E3F08F0B3CF9395880F7C
:101A800008F09927EE0F9795879508950CD0E6C03A
:101A9000DED040F0D5D030F021F45F3F19F0C7C060
:101AA000511110C1CAC0EBD098F39923C9F3552343
:101AB000B1F3951B550BBB27AA2762177307840741
:101AC00038F09F5F5F4F220F331F441FAA1FA9F3F7
:101AD00033D00E2E3AF0E0E830D091505040E695E9
:101AE000001CCAF729D0FE2F27D0660F771F881F4A
:101AF000BB1F261737074807AB07B0E809F0BB0B39
:101B0000802DBF01FF2793585F4F2AF09E3F51055C
:101B100068F08DC0D7C05F3FECF3983EDCF386954C
:101B200077956795B795F7959F5FC9F7880F911DD2
:101B30009695879597F90895E1E0660F771F881FBE
:101B4000BB1F621773078407BA0720F0621B730B71
:101B5000840BBA0BEE1F88F7E095089598D088F0B3
:101B60009F5790F0B92F9927B751A0F0D1F0660F89
:101B7000771F881F991F1AF0BA95C9F712C0B130A4
:101B800081F09FD0B1E008959CC0672F782F8827FF
:101B9000B85F39F0B93FCCF3869577956795B395E3
:101BA000D9F73EF490958095709561957F4F8F4F52
:101BB0009F4F0895E89409C097FB3EF49095809557
:101BC000709561957F4F8F4F9F4F9923A9F0F92F03
:101BD00096E9BB279395F695879577956795B79581
:101BE000F111F8CFFAF4BB0F11F460FF1BC06F5F67
:101BF0007F4F8F4F9F4F16C0882311F096E911C079
:101C0000772321F09EE8872F762F05C0662371F099
:101C100096E8862F70E060E02AF09A95660F771FAD
:101C2000881FDAF7880F9695879597F9089597F9A1
:101C30009F6780E870E060E008959FEF80EC089572
:101C400000240A941616170618060906089500249B
:101C50000A9412161306140605060895092E039415
:101C6000000C11F4882352F0BB0F40F4BF2B11F489
:101C700060FF04C06F5F7F4F8F4F9F4F089557FDE8
:101C80009058440F551F59F05F3F71F04795880FEA
:101C900097FB991F61F09F3F79F087950895121681
:101CA00013061406551FF2CF4695F1DF08C016162D
:101CB00017061806991FF1CF8695710561050894DE
:101CC0000895E894BB2766277727CB0197F90895F5
:101CD0000AD0C4CFB5DF28F0BADF18F0952309F099
:101CE000A6CFABCFEFCFCBDFA8F39923D9F3552302
:101CF000C9F3950F50E0551FAA27EE27FF27BB27F2
:101D000000240894679520F4E20FF31FB41F0A1E05
:101D1000220F331F441FAA1F6695A9F7779530F449
:101D2000F30FB41F0A1E121E08F46395330F441FED
:101D3000AA1F221F769599F7879520F4B40F0A1EE3
:101D4000121E631F440FAA1F221F331F8695A9F777
:101D5000862F712D602D11249F5750408AF0E1F09D
:101D600088234AF0EE0FFF1FBB1F661F771F881FD7
:101D700091505040A9F79E3F510570F058CFA2CF27
:101D80005F3FECF3983EDCF3869577956795B795C2
:101D9000F795E7959F5FC1F7FE2B880F911D9695EC
:101DA000879597F908950024552704C0080E591FF8
:101DB000880F991F009729F076956795B8F37105FC
:101DC000B9F7802D952F0895EE27FF27AA27BB2767
:101DD00008C0A20FB31FE41FF51F220F331F441FBB
:101DE000551F969587957795679598F37040A9F755
:101DF000009799F7BD01CF010895AA1BBB1B51E1C4
:101E000007C0AA1FBB1FA617B70710F0A61BB70B6A
:101E1000881F991F5A95A9F780959095BC01CD010F
:101E20000895A1E21A2EAA1BBB1BFD010DC0AA1F1B
:101E3000BB1FEE1FFF1FA217B307E407F50720F033
:101E4000A21BB30BE40BF50B661F771F881F991FAE
:101E50001A9469F760957095809590959B01AC01F7
:101E6000BD01CF010895DC01862FE82FF999FECF3F
:101E700005C0E1BDF89AE39500B40D924150C8F752
:101E80000895DC01A40FB51F4150504038F0862F53
:101E9000840F2E9105D041505040D8F70895262F39
:101EA000F999FECF81BDF89A815000B4021639F03D
:101EB0001FBA20BD0FB6F894FA9AF99A0FBE08958A
:041EC000F894FFCFC4
:101EC4000A0000FFFFFFFF0302002F5E71BC93E2D4
:101ED400CD57780926EBC4B59AAE81F0DF123D4C9C
:101EE40063F9D6A788456A1B34735C2D02CFE09151
:101EF400BE240B7A5598B7C6E9DDF283AC614E3F38
:101F0400108AA5D4FB36196847E6C9B8975A7504F0
:101F14002BB19EEFC00D22537C48671639F4DBAA1F
:101F2400851F30416EA38CFDD295BACBE429067788
:101F340058C2ED9CB37E51200F3B14654A87A8D943
:101F4400F66C43321DD0FF8EA1E3CCBD925F7001CD
:101F54002EB49BEAC5082756794D62133CF1DEAFD7
:101F6400801A35446BA689F8D790BFCEE12C037252
:101F74005DC7E899B67B54250A3E11604F82ADDCFB
:101F8400F369463718D5FA8BA4052A5B74B996E72A
:101F9400C8527D0C23EEC1B09FAB84F5DA173849E3
:101FA40066FCD3A28D406F1E3176592807CAE5948A
:101FB400BB210E7F509DB2C3ECD8F786A9644B3A7F
:0A1FC400158FA0D1FE331C6D420002
:00000001FF
