:1000000030C04AC049C048C047C0D5C245C044C03E
:1000100043C042C041C040C01CC83EC03DC03CC0FF
:100020003BC03AC039C0A3C572C0A3C198C0A5C027
:10003000CBC07DC0E5C004C12DC158C177C18BC103
:10004000CDC1D1C1DCC185C25CC267C25EC2DBC1A9
:10005000FDC123C2D0C165C268C26BC26EC271C28B
:1000600074C211241FBECFEFD2E0DEBFCDBF12E0BD
:10007000A0E0B1E0E2EBFEE102C005900D92AA30F3
:10008000B107D9F722E0AAE0B2E001C01D92A93B76
:10009000B207E1F710D40BCFB3CF95C486B1881F58
:1000A0008827881F08952FB7F894E3E1F2E087814D
:1000B00090850196908787832FBF08952FB7F89476
:1000C000E3E1F2E0808191810196918380832FBFEB
:1000D00008959FB7F89480931D02611102C09FBFDD
:1000E000089560931F02FBCFDC01EC91E0930E02B8
:1000F000623071050CF43DC14E2F50E0FA01359786
:10010000EC30F10508F035C1EC5EFF4F0994119613
:100110008C91882309F42DC18FEF9FEF90930401F8
:100120008093030190930601809305010895653043
:1001300071050CF41EC111968C91119780930F02DA
:1001400012968C9112978093100213968C911397AC
:100150008093110214968C91809312020895119647
:100160008C91119782FF02C084E083B911968C9123
:1001700084FFFFC081E089B9089511968C91119791
:1001800080FF02C084E08CB911968C91119781FF99
:1001900002C088E08CB911968C91119782FF04C03F
:1001A0004A9B439A84E089B911968C91119783FFF9
:1001B00002C082E08CB911968C9184FFDAC0339929
:1001C0005A9888E086B9089511968C91119781FF0D
:1001D00002C084E086B911968C91119782FF02C00B
:1001E00082E086B911968C91119783FF02C080E45A
:1001F00083B911968C9184FFBCC080E883B90895BF
:10020000653071050CF4B5C011968C9111978093EF
:10021000B30212968C9112978093B40213968C912C
:1002200013978093B50214968C918093B6028091B7
:10023000B0028B7F8093B0028091B102846053C082
:10024000673071050CF495C011968C9111978093CD
:10025000A00212968C9112978093A10213968C9112
:1002600013978093A20214968C9114978093A30203
:1002700015968C9115978093A40216968C91809375
:10028000A5028091B0028D7F8093B0028091B1026F
:10029000826029C0673071050CF46BC011968C9197
:1002A00011978093A80212968C9112978093A902BD
:1002B00013968C9113978093AA0214968C9114979D
:1002C0008093AB0215968C9115978093AC0216968D
:1002D0008C918093AD028091B0028E7F8093B002AA
:1002E0008091B10281608093B102089565307105FB
:1002F0000CF43FC011968C91119780939302129643
:100300008C9112978093940213968C9113978093FB
:10031000950214968C9180939602809199028E7F1B
:100320008093990280919A02816021C062307105A8
:1003300001F111968C91119780939C0212968C91E9
:1003400080939D02809199028D7F80939902809184
:100350009A0282600CC011968C91809390028091D9
:1003600099028B7F8093990280919A028460809396
:100370009A020895823031F0843021F0813079F48E
:10038000479A089580912702843021F080912702B6
:10039000853029F4809120028260809320020895A4
:1003A0004F925F926F927F92AF92BF92CF92DF9205
:1003B000EF92FF920F931F93CF93DF931F92CDB7CE
:1003C000DEB7E0910E024E2E512C81E14816510409
:1003D00008F0C3C0F201E05EFF4F099481E0809312
:1003E000210287E089C061E087E292E05DD364E0AA
:1003F0008CE192E0B1C064E08FE092E0ADC069E0D2
:1004000083E192E0A9C019B1B3B003B147DE99B15D
:10041000B0FACC24C0F8D12CCC0CDD1C90FBEE241F
:10042000E0F8F12C34E0EE0CFF1C3A95E1F7EC28F3
:1004300013FB222720F99E2D922B102F1470192BBD
:10044000880F880F880F182B198357C08CB14CB1B7
:1004500099B13CB126B143FB002700F910E0000F31
:10046000111F9470092B82FB882780F9082B31FB20
:10047000AA27A0F9B0E0F3E0AA0FBB1FFA95E1F7B5
:10048000A02B23FB662760F970E0B4E0660F771FAE
:10049000BA95E1F76A2B698330C089B1E6B176B1CC
:1004A00063B193B1E2FBAA24A0F8B12CAA0CBB1C47
:1004B00071FB442740F950E0440F551F440F551F6E
:1004C0004A29881F8827881F482B66FB222720F986
:1004D00030E053E0220F331F5A95E1F7242B892F88
:1004E000990F990B8827990F881F992774E0880F17
:1004F000991F7A95E1F7822B898361E0CE010196FD
:100500002BC061E080E292E027C062E089E992E0DE
:10051000CBD262E080EB92E01FC066E081E091E028
:100520001BC066E083EB92E017C068E080EA92E0CF
:1005300013C068E088EA92E00FC066E083E992E0C9
:100540000BC064E08CE992E007C063E080E992E0D0
:1005500003C062E087E091E0A7D2CED20F90DF9196
:10056000CF911F910F91FF90EF90DF90CF90BF90B0
:10057000AF907F906F905F904F900895F8948DDDCD
:100580005BD582D4BBD58AEB91E0F5D780ED91E0C5
:100590006DD284E790E065D284E08093680080EFBC
:1005A00080936D0089B180938F0280918F02809338
:1005B0008E02789408951F920F920FB60F92112415
:1005C0008F9389B180938F028F910F900FBE0F9000
:1005D0001F901895CF93DF93C82FD62F833009F43F
:1005E0003EC088F58130A1F1823009F07BC0809156
:1005F00022028F5F809322029FB7F894809122029B
:1006000081508093150210921602109217021092D8
:100610001802109219029FBF109221028FB7F8940E
:1006200010920F02109210021092110210921202F8
:100630008FBF289A2A9A88E01ED242E360E080EFBA
:1006400091E036D425C0843071F18530D9F14AC0AB
:1006500028982A9880E067D46D2F81E042C01092DC
:1006600022028FB7F89440912302509124026091A6
:100670002502709126024093160250931702609350
:100680001802709319028FBF82E34DD4109220029A
:100690008FB7F894C0931C02D11102C08FBF22C043
:1006A000D0931E02FBCF2898F4D122E343E060E20E
:1006B00073E080E199E03CD410922002FFDC6D2FC2
:1006C00084E00FC028982A984798E3D183E02BD480
:1006D0001092200280912702843009F0EFDC6D2F08
:1006E00085E0F7DCC09327021092230210922402C7
:1006F0001092250210922602DF91CF9108958091E9
:1007000022028A3018F069E085E00FC08091230250
:1007100090912402A0912502B09126028034964047
:10072000A105B10518F060E082E054CF08958091F2
:100730002102882319F060E083E015C08091230234
:1007400090912402A0912502B09126024B990FC0EE
:10075000803426E09207A105B10548F09FDC88238C
:1007600019F063E085E036CF62E081E0FCCF803CA9
:100770009742A940B10548F091DC69E0882311F067
:1007800085E001C081E026DF8ECC08954B991FC023
:100790002FB7F89480910F0290911002A09111024E
:1007A000B09112022FBF892B8A2B8B2B41F476DC60
:1007B000811102C062E001C063E085E007C06EDC29
:1007C000811102C062E001C063E084E003CF809148
:1007D0002102882371F01092210260DC81111FC078
:1007E00010922302109224021092250210922602E7
:1007F00008958091230290912402A0912502B09146
:10080000260280329F4BA240B10548F047DC6AE0E7
:10081000882311F085E001C081E0DCDE44CC08953E
:100820003DDC882319F063E085E03BC08091200225
:10083000882301F18091200281FF02C063E030C073
:100840008091200282FF02C064E02AC080912002D1
:1008500083FF02C065E024C08091200284FF02C0B3
:1008600066E01EC08091200285FF02C067E018C0CC
:100870006EEF16C040910F0250911002609111026C
:10088000709112028091230290912402A09125027E
:10089000B091260284179507A607B70718F068E0FD
:1008A00082E098CE08958091200281FF03C063E02A
:1008B00082E090CE089562DE81E0809327028093EB
:1008C0001E024FEF60E088E290E0F2D2D3D38111B4
:1008D00001C0E6D275D4811101C0B7D690918F02C4
:1008E00080918E02981721F1892790938E0287FFBD
:1008F00005C09091200290619093200286FF05C070
:100900009091200290629093200285FF05C0909103
:10091000200294609093200284FF05C08091200201
:100920008860809320028091200281608093200261
:10093000DCD300910A0210910B0220910C0230913D
:100940000D02601771078207930721F16B017C018B
:10095000C01AD10AE20AF30A97018601C090230265
:10096000D0902402E0902502F09026020C0D1D1D6F
:100970002E1D3F1D00932302109324022093250275
:100980003093260260930A0270930B0280930C024C
:1009900090930D0280912702833089F038F48130E2
:1009A00061F0823009F092CFC2DE90CF843049F0FE
:1009B000853009F08BCF77DF89CFA1DE87CFE6DEE8
:1009C00085CF2EDF83CF8DEA809364008DB1807F49
:1009D0008DB98EB18F608EB984B114B885B18FEFA7
:1009E00085B997B117B898B188B99AB11AB89BB1BF
:1009F0008BB9699A71986A9A72986B9A7398209ACF
:100A00002898219A29982998229A2A98269A2E98E5
:100A1000279A2F984098399A41983A9A42983B9A47
:100A200043983F9A4798509A5898529A5A98539890
:100A30005B9854985C9855985D9856985E9857982E
:100A400057985F9A40E060E881E690E003D013BEDB
:100A500015BE08952FB7F894FC01608340832FBF23
:100A6000089590934D0280934C02089590934F0205
:100A700080934E020895E4E6F0E090819F779083A2
:100A8000880F8093BA00ECEBF0E08081856480836E
:100A90000895ECEBF0E080818A7B8083E4E6F0E06F
:100AA000808180688083089540913A02262F30E04B
:100AB000240F311D21313105DCF420915002223008
:100AC000C9F4FC0180E090E0861758F430913A02B6
:100AD0002191DC01A45CBD4FA30FB11D2C930196A5
:100AE000F3CF80913A02680F60933A0280E0089554
:100AF00081E0089582E0089580913A0290E0409765
:100B000014F580915002823001F5E0E090E0809190
:100B10003A02981760F4A92FB0E0A45CBD4F8C9105
:100B2000E827F0E0E75FFE4FE0819F5FF0CFA09104
:100B30003A0281E08A0F80933A02B0E0A45CBD4F94
:100B4000EC9380E0089581E0089582E0089585EDBA
:100B50008093BC008091BC0084FDFCCF10925002B9
:100B6000089585EC8093BC001092500208951F9266
:100B70000F920FB60F9211242F933F934F935F93D1
:100B80006F937F938F939F93AF93BF93EF93FF9355
:100B90008091B900887F8039A1F1B0F4803759F194
:100BA00050F4803641F1883631F1811186C01092BF
:100BB0002802CDDF82C0803821F1883809F474C062
:100BC000883709F07AC017C0803B09F445C048F463
:100BD000803A51F1883A09F43FC0883909F06DC074
:100BE00063C0803C09F464C0883C09F461C0883B60
:100BF00009F447C062C081E080935002109229023C
:100C000011C080912902803108F04EC0E091290284
:100C100081E08E0F809329028091BB00F0E0E65DB9
:100C2000FD4F808385EC41C09CDF8091290280319B
:100C300030F4E0912902F0E0E65DFD4F1082609112
:100C4000290270E0E0914C02F0914D028AE292E0BC
:100C500009951092290231C082E0809350021092CF
:100C60003B0210923A02E0914E02F0914F02099538
:100C700080913A02811105C081E080933A0210927E
:100C80003C02E0913B0281E08E0F80933B02F0E05A
:100C9000E45CFD4F80818093BB0090913B0280918A
:100CA0003A02981708F4BECF85E88093BC0005C0CF
:100CB00085EC8093BC0010925002FF91EF91BF91A0
:100CC000AF919F918F917F916F915F914F913F91E4
:100CD0002F910F900FBE0F901F901895382FFC0189
:100CE00080E090E02E2F231B2617C8F42191822745
:100CF000282F22952827022E269526952025022E7C
:100D0000269520252770082E892F2695079427954C
:100D1000902D82270694279590258227E3CF08956A
:100D2000CF92DF92EF92FF9240915C0280915D0240
:100D300090915E022091560230915702442319F09F
:100D4000413089F025C0019690935E0280935D0248
:100D500040915A0250915B028417950771F481E02B
:100D600080935C0215C0019790935E0280935D02B0
:100D7000009719F410925C020BC02817390740F451
:100D80004091510250E0842395234817590759F5A3
:100D900060915D0270915E026217730720F1621B21
:100DA000730B80E090E0FDD6209152023091530207
:100DB000409154025091550282D76B017C016091A1
:100DC00061027091620280E090E0EBD69B01AC0181
:100DD000C701B601EED5B9D6609523E072277093AE
:100DE000890060938800FF90EF90DF90CF90089586
:100DF000882391F0682F70E080E090E0D2D620E068
:100E000030EC4FE754E45BD720E030E04FE753E4A9
:100E100034D69BD6CB01089580E090E00895809170
:100E20005C02882319F08130C9F0089580915D0239
:100E300090915E02019690935E0280935D022091F4
:100E40005A0230915B0282179307E9F481E08093A4
:100E50005C0280915F029091600211C080915D02FE
:100E600090915E02019790935E0280935D02892BC0
:100E700051F410925C028091610290916202909311
:100E80008900809388000895E4E6F0E08081877F00
:100E9000808383EC809380008AE0809381000895B2
:100EA000E0915802F0915902309709F009940895A1
:100EB0001F93CF93DF93EC01862F142F99DF80953A
:100EC00023E092279093620280936102812F90DF4A
:100ED000809523E092279093600280935F02909325
:100EE0008900809388002097B1F083E0D695C7955C
:100EF0008A95E1F7D0935B02C0935A0210925E028A
:100F000010925D0210925C028FE097E0909359027C
:100F10008093580204C01092590210925802DF9137
:100F2000CF911F910895482F60E080E090E0C0CFFE
:100F3000CF92DF92EF92FF920F931F93CF93DF93A5
:100F4000EC018B01842FD22E53DF7C01909362023F
:100F5000809361028D2D4CDF9093600280935F023D
:100F6000E09483E0F826F0928900E092880084E023
:100F7000D695C7958A95E1F7D0935B02C0935A0244
:100F800094E0169507959A95E1F710935702009310
:100F9000560260915F0270916002809161029091AF
:100FA0006202681B790B80E090E0FBD56B017C014D
:100FB000BE01601B710B80E090E0F3D59B01AC019A
:100FC000C701B6015AD59B01AC01609352027093E0
:100FD0005302809354029093550260E070E080E8E1
:100FE0009FE34BD520E030E040E05FE3E2D4ADD5B5
:100FF000623010F481E009C0643010F483E005C071
:10100000683010F487E001C08FE0809351021092A5
:101010005E0210925D0210925C0280E996E090936D
:10102000590280935802DF91CF911F910F91FF9049
:10103000EF90DF90CF900895E4E6F0E080818F7D1F
:1010400080838CE085BD89EF87BD82E080936E0050
:1010500008951F920F920FB60F9211248F938091D3
:1010600068028F5F809368028F910F900FBE0F9080
:101070001F901895CF92DF92EF92FF9240916802F5
:1010800080916302481759F1682F70E0242F30E0F7
:10109000C0906402D0906502E0906602F090670212
:1010A000261B370B481708F43395C90123E0880F36
:1010B000991F2A95E1F7092E000CAA0BBB0B8C0D8A
:1010C0009D1DAE1DBF1D8093640290936502A09389
:1010D0006602B09367024093630280E001C081E042
:1010E000FF90EF90DF90CF9008956091640270912F
:1010F00065028091660290916702089546E050E093
:1011000060E070E083E992E0A5D666E083E992E0D2
:10111000E5DD892B91F0809199028160809399029D
:1011200010929302109294021092950210929602DD
:1011300080919B02816080939B0244E050E066E0D6
:1011400070E08CE992E086D664E08CE992E0C6DD3E
:10115000892B71F08091990282608093990210929C
:101160009D0210929C0280919B02826080939B0260
:1011700043E050E06AE070E080E992E06BD663E023
:1011800080E992E0ABDD892B61F080919902846067
:10119000809399021092900280919B0284608093C8
:1011A0009B02809164008E7F8093640080E4809332
:1011B0007C0086E880937A0081E080937E00089529
:1011C0008F929F92AF92BF92CF92DF92EF92FF9257
:1011D0000F931F93CF93DF9380919B028823E9F1B4
:1011E00080919B0280FF16C080E89EE4ABECB5EBDB
:1011F0008093930290939402A0939502B0939602E9
:1012000080919B028E7F80939B0280919A028160E5
:1012100080939A0280919B0281FF0EC010929D02E2
:1012200010929C0280919B028D7F80939B02809103
:101230009A02826080939A0280919B0282FF0DC085
:1012400084E18093900280919B028B7F80939B022C
:1012500080919A02846080939A0280919A028823F6
:1012600009F448C080919A0280FF14C064E083E9C9
:1012700092E034DD909398028093970246E050E02C
:1012800060E070E083E992E0F3D580919A028E7F6E
:1012900080939A0280919A0281FF14C062E08CE9E7
:1012A00092E01CDD90939F0280939E0244E050E008
:1012B00066E070E08CE992E0DBD580919A028D7F48
:1012C00080939A0280919A0282FF14C061E080E9C3
:1012D00092E004DD909392028093910243E050E00B
:1012E0006AE070E080E992E0C3D580919A028B7F3A
:1012F00080939A0280917A00806480937A00AEE6AF
:10130000B2E0AD0160E030E020E080917A00D82FBB
:10131000D07486FDFACF8091780070917900909119
:101320007A00906490937A0090E0972BFA01819371
:101330009193AF01E32FF0E0EE0FFF1FE259FD4F55
:101340000190F081E02D8E179F0770F0E62FF0E0FE
:10135000EE0FFF1FE259FD4F0190F081E02DE817DD
:10136000F90718F4622F01C0322F2F5F253069F67C
:10137000C0E0E12CF12C80E0381741F0681731F023
:101380004D915C911197E40EF51ECF5F8F5F129621
:10139000853091F76091930270919402809195024B
:1013A000909196022FEF33E040E050E031D54901B3
:1013B0005A016C2F70E0C70117D59B0140E050E047
:1013C000C501B401F8D420E432E44FE050E020D568
:1013D000122FC32F60919002662309F455C020910B
:1013E0006D02222391F1009190028091900264E6B7
:1013F00070E0681B7109072E000C880B990B209177
:10140000690230916A0240916B0250916C02D3D410
:101410006B017C01802F90E0612F7C2FBBD4A70152
:101420009601280F391F411D511DCA01B90124E63B
:1014300030E040E050E0ECD42093690230936A023F
:1014400040936B0250936C020BC01093690230936F
:101450006A0240936B0250936C0281E080936D02AC
:101460004091690250916A0260916B0270916C0226
:10147000809100019FEF980F9093000181116CC043
:101480009A01AB014427552780919C0290919D02BF
:10149000892B61F060919C0270919D0280E090E048
:1014A0008AD428EE33E040E050E0B2D480910101CC
:1014B00090910201A0E0B0E0281739074A075B07C6
:1014C00009F44BC08FB7F8943093020120930101C7
:1014D0008FBF809103019091040197FF07C08FB7E0
:1014E000F89430930401209303018FBF809105018C
:1014F0009091060197FF07C08FB7F89430930601CB
:10150000209305018FBF8091030190910401092E62
:10151000000CAA0BBB0B281739074A075B0738F4E6
:101520008FB7F894309304012093030113C0809186
:10153000050190910601092E000CAA0BBB0B821726
:101540009307A407B50748F48FB7F89430930601C2
:10155000209305018FBF01C0D1E08D2FDF91CF9186
:101560001F910F91FF90EF90DF90CF90BF90AF90C1
:101570009F908F90089590938D0280938C0248E005
:1015800050E060E170E088EA92E064D468E088EAC4
:1015900092E0A4DB892BB1F08091B002816080934E
:1015A000B0021092A9021092A8021092AA02109200
:1015B000AB021092AC021092AD028091B202816037
:1015C0008093B20248E050E068E170E080EA92E087
:1015D00041D468E080EA92E081DB892BB1F0809110
:1015E000B00282608093B0021092A1021092A00219
:1015F0001092A2021092A3021092A4021092A502CD
:101600008091B20282608093B20246E050E060E2D4
:1016100070E083EB92E01ED466E083EB92E05EDB49
:10162000892B91F08091B00284608093B002109277
:10163000B4021092B3021092B6021092B5028091D9
:10164000B20284608093B20208950F931F93CF93E8
:10165000DF938091B102882309F448C08091B102E0
:1016600080FF14C066E088EA92E038DB9093AF0216
:101670008093AE0248E050E060E170E088EA92E0DA
:10168000F7D38091B1028E7F8093B1028091B10235
:1016900081FF14C066E080EA92E020DB9093A7020D
:1016A0008093A60248E050E068E170E080EA92E0B2
:1016B000DFD38091B1028D7F8093B1028091B1021E
:1016C00082FF14C064E083EB92E008DB9093B802E1
:1016D0008093B70246E050E060E270E083EB92E076
:1016E000C7D38091B1028B7F8093B102FEDCAB0146
:1016F000BC018091880290918902A0918A02B091E8
:101700008B02481759076A077B0709F44CC18A0105
:101710009B01081B190B2A0B3B0B809184029091B3
:101720008502A0918602B0918702800F911FA21FAF
:10173000B31F8093840290938502A0938602B09396
:101740008702409388025093890260938A027093C3
:101750008B02C0910101D09102012091B20222239B
:1017600009F45AC02091B20220FF1CC024EC34E0DE
:101770003093A9022093A80240E859EA63E070E0A0
:101780004093AA025093AB026093AC027093AD02F7
:101790002091B2022E7F2093B2022091B1022160EB
:1017A0002093B1022091B20221FF1CC028E235E053
:1017B0003093A1022093A00248EB5BE060E070E070
:1017C0004093A2025093A3026093A4027093A502D7
:1017D0002091B2022D7F2093B2022091B1022260AB
:1017E0002093B1022091B20222FF16C022E330E022
:1017F0003093B4022093B30228EE33E03093B60264
:101800002093B5022091B2022B7F2093B202209147
:10181000B10224602093B1022091A8023091A90264
:10182000232B71F12091A8023091A9022C173D07BA
:1018300038F1409180025091810260918202709152
:101840008302840F951FA61FB71F80938002909379
:101850008102A0938202B09383024091AA02509128
:10186000AB026091AC027091AD0284179507A60798
:10187000B70770F0E0918C02F0918D0281E009953C
:1018800010928002109281021092820210928302C2
:101890008091A0029091A102892BB1F18091A002C8
:1018A0009091A102C817D90778F140917C0250911C
:1018B0007D0260917E0270917F02809184029091FE
:1018C0008502A0918602B0918702840F951FA61F02
:1018D000B71F80937C0290937D02A0937E02B09309
:1018E0007F024091A2025091A3026091A4027091E4
:1018F000A50284179507A607B70770F0E0918C0240
:10190000F0918D0282E0099510927C0210927D0286
:1019100010927E0210927F028091B3029091B402E5
:10192000892B89F120917A0230917B0221153105B2
:1019300029F1409184025091850280917802909122
:101940007902840F951F90937902809378024091D9
:10195000B5025091B60284179507E8F08091B30262
:101960009091B402AE01421B530B4817590734F053
:10197000E0918C02F0918D0284E00995D0937B0276
:10198000C0937A0204C010927B0210927A021092E5
:1019900079021092780210928402109285021092BD
:1019A000860210928702DF91CF911F910F910895C7
:1019B0005058BB27AA270ED048C139D130F03ED1AC
:1019C00020F031F49F3F11F41EF42EC10EF4E09587
:1019D000E7FB24C1E92F4AD180F3BA1762077307E6
:1019E0008407950718F071F49EF562C10EF4E09536
:1019F0000B2EBA2FA02D0B01B90190010C01CA01C9
:101A0000A0011124FF27591B99F0593F50F4503E73
:101A100068F11A16F040A22F232F342F4427585F65
:101A2000F3CF469537952795A795F0405395C9F77D
:101A30007EF41F16BA0B620B730B840BBAF0915035
:101A4000A1F0FF0FBB1F661F771F881FC2F70EC0D4
:101A5000BA0F621F731F841F48F4879577956795A7
:101A6000B795F7959E3F08F0B3CF9395880F08F090
:101A70009927EE0F9795879508950CD0E6C0DED094
:101A800040F0D5D030F021F45F3F19F0C7C05111BC
:101A900010C1CAC0EBD098F39923C9F35523B1F311
:101AA000951B550BBB27AA2762177307840738F0CD
:101AB0009F5F5F4F220F331F441FAA1FA9F333D02C
:101AC0000E2E3AF0E0E830D091505040E695001CE0
:101AD000CAF729D0FE2F27D0660F771F881FBB1F9C
:101AE000261737074807AB07B0E809F0BB0B802D76
:101AF000BF01FF2793585F4F2AF09E3F510568F0C2
:101B00008DC0D7C05F3FECF3983EDCF386957795A8
:101B10006795B795F7959F5FC9F7880F911D9695C3
:101B2000879597F90895E1E0660F771F881FBB1F1F
:101B3000621773078407BA0720F0621B730B840BCC
:101B4000BA0BEE1F88F7E095089598D088F09F575C
:101B500090F0B92F9927B751A0F0D1F0660F771FF9
:101B6000881F991F1AF0BA95C9F712C0B13081F0D9
:101B70009FD0B1E008959CC0672F782F8827B85F69
:101B800039F0B93FCCF3869577956795B395D9F73A
:101B90003EF490958095709561957F4F8F4F9F4F44
:101BA0000895E89409C097FB3EF490958095709550
:101BB00061957F4F8F4F9F4F9923A9F0F92F96E999
:101BC000BB279395F695879577956795B795F1110E
:101BD000F8CFFAF4BB0F11F460FF1BC06F5F7F4FAB
:101BE0008F4F9F4F16C0882311F096E911C07723BD
:101BF00021F09EE8872F762F05C0662371F096E8C6
:101C0000862F70E060E02AF09A95660F771F881F94
:101C1000DAF7880F9695879597F9089597F99F6752
:101C200080E870E060E008959FEF80EC0895002464
:101C30000A941616170618060906089500240A9431
:101C400012161306140605060895092E0394000CB7
:101C500011F4882352F0BB0F40F4BF2B11F460FF46
:101C600004C06F5F7F4F8F4F9F4F089557FD90586F
:101C7000440F551F59F05F3F71F04795880F97FB50
:101C8000991F61F09F3F79F087950895121613060A
:101C90001406551FF2CF4695F1DF08C01616170639
:101CA0001806991FF1CF869571056105089408956E
:101CB000E894BB2766277727CB0197F908950AD0C8
:101CC000C4CFB5DF28F0BADF18F0952309F0A6CF0E
:101CD000ABCFEFCFCBDFA8F39923D9F35523C9F3CB
:101CE000950F50E0551FAA27EE27FF27BB2700249A
:101CF0000894679520F4E20FF31FB41F0A1E220F09
:101D0000331F441FAA1F6695A9F7779530F4F30F88
:101D1000B41F0A1E121E08F46395330F441FAA1F36
:101D2000221F769599F7879520F4B40F0A1E121E8C
:101D3000631F440FAA1F221F331F8695A9F7862F02
:101D4000712D602D11249F5750408AF0E1F08823B7
:101D50004AF0EE0FFF1FBB1F661F771F881F9150B1
:101D60005040A9F79E3F510570F058CFA2CF5F3F7A
:101D7000ECF3983EDCF3869577956795B795F795E4
:101D8000E7959F5FC1F7FE2B880F911D969587956C
:101D900097F908950024552704C0080E591F880F8D
:101DA000991F009729F076956795B8F37105B9F7F3
:101DB000802D952F0895EE27FF27AA27BB2708C05F
:101DC000A20FB31FE41FF51F220F331F441F551F1F
:101DD000969587957795679598F37040A9F7009742
:101DE00099F7BD01CF010895AA1BBB1B51E107C0A4
:101DF000AA1FBB1FA617B70710F0A61BB70B881F9B
:101E0000991F5A95A9F780959095BC01CD01089529
:101E1000A1E21A2EAA1BBB1BFD010DC0AA1FBB1FEE
:101E2000EE1FFF1FA217B307E407F50720F0A21B60
:101E3000B30BE40BF50B661F771F881F991F1A94CD
:101E400069F760957095809590959B01AC01BD01F7
:101E5000CF010895DC01862FE82FF999FECF05C048
:101E6000E1BDF89AE39500B40D924150C8F708958A
:101E7000DC01A40FB51F4150504038F0862F840F6D
:101E80002E9105D041505040D8F70895262FF9994A
:101E9000FECF81BDF89A815000B4021639F01FBA06
:101EA00020BD0FB6F894FA9AF99A0FBE0895F894E7
:021EB000FFCF62
:101EB2000A0000FFFFFFFF0301002F5E71BC93E2E7
:101EC200CD57780926EBC4B59AAE81F0DF123D4CAE
:101ED20063F9D6A788456A1B34735C2D02CFE09163
:101EE200BE240B7A5598B7C6E9DDF283AC614E3F4A
:101EF200108AA5D4FB36196847E6C9B8975A750403
:101F02002BB19EEFC00D22537C48671639F4DBAA31
:101F1200851F30416EA38CFDD295BACBE42906779A
:101F220058C2ED9CB37E51200F3B14654A87A8D955
:101F3200F66C43321DD0FF8EA1E3CCBD925F7001DF
:101F42002EB49BEAC5082756794D62133CF1DEAFE9
:101F5200801A35446BA689F8D790BFCEE12C037264
:101F62005DC7E899B67B54250A3E11604F82ADDC0D
:101F7200F369463718D5FA8BA4052A5B74B996E73C
:101F8200C8527D0C23EEC1B09FAB84F5DA173849F5
:101F920066FCD3A28D406F1E3176592807CAE5949C
:101FA200BB210E7F509DB2C3ECD8F786A9644B3A91
:0A1FB200158FA0D1FE331C6D420014
:00000001FF
